:100000000C9463000C948B000C948B000C948B006C
:100010000C948B000C948B000C948B000C94E904D2
:100020000C948B000C948B000C948B000C948B0024
:100030000C948B000C948B000C948B000C948B0014
:100040000C94C3050C948B000C9491050C946B05D7
:100050000C948B000C948B000C948B000C948B00F4
:100060000C948B000C948B000000000024002700EF
:100070002A0000000000250028002B0002000000DC
:1000800000230026002900040404040404040402DC
:100090000202020202030303030303010204081025
:1000A00020408001020408102001020408102000F2
:1000B0000000080002010000030407000000000027
:1000C00000000000EF0611241FBECFEFD8E0DEBF16
:1000D000CDBF11E0A0E0B1E0EAE5F2E102C0059099
:1000E0000D92A432B107D9F721E0A4E2B1E001C03A
:1000F0001D92AB3DB207E1F710E0C3E6D0E004C0CB
:100100002197FE010E941609C236D107C9F70E9445
:100110000D060C942B090C940000AF92BF92CF9265
:10012000DF92EF92FF920F931F93CF93DF936C01B7
:100130007B018B01040F151FEB015E01AE18BF0898
:10014000C017D10759F06991D601ED91FC9101904A
:10015000F081E02DC6010995892B79F7C501DF9162
:10016000CF911F910F91FF90EF90DF90CF90BF90B4
:10017000AF900895FC01538D448D252F30E0842FDE
:1001800090E0821B930B541710F0CF9608950197BF
:100190000895FC01918D828D981761F0A28DAE0FAC
:1001A000BF2FB11D5D968C91928D9F5F9F73928F33
:1001B00090E008958FEF9FEF0895FC01918D828D5F
:1001C000981731F0828DE80FF11D858D90E008952C
:1001D0008FEF9FEF0895FC01918D228D892F90E084
:1001E000805C9F4F821B91098F73992708958EE33E
:1001F00091E00E94EB0021E0892B09F420E0822F9E
:10020000089580E090E0892B29F00E94F700811189
:100210000C9400000895FC01A48DA80FB92FB11D06
:10022000A35ABF4F2C91848D90E001968F7399272C
:10023000848FA689B7892C93A089B1898C9183700A
:1002400080648C93938D848D981306C00288F38903
:10025000E02D80818F7D80830895EF92FF920F9330
:100260001F93CF93DF93EC0181E0888F9B8D8C8D62
:1002700098131AC0E889F989808185FF15C09FB756
:10028000F894EE89FF896083E889F9898081837019
:10029000806480839FBF81E090E0DF91CF911F91C8
:1002A0000F91FF90EF900895F62E0B8D10E00F5FE9
:1002B0001F4F0F731127E02E8C8D8E110CC00FB6BF
:1002C00007FCFACFE889F989808185FFF5CFCE0157
:1002D0000E940B01F1CFEB8DEC0FFD2FF11DE35AC6
:1002E000FF4FF0829FB7F8940B8FEA89FB898081DA
:1002F0008062CFCFCF93DF93EC01888D8823B9F054
:10030000AA89BB89E889F9898C9185FD03C0808120
:1003100086FD0DC00FB607FCF7CF8C9185FFF2CF9D
:10032000808185FFEDCFCE010E940B01E9CFDF91E7
:10033000CF910895833081F028F4813099F0823094
:10034000A9F008958730A9F08830C9F08430B1F45D
:10035000809180008F7D03C0809180008F77809393
:100360008000089584B58F7784BD089584B58F7D0E
:10037000FBCF8091B0008F778093B000089580917B
:10038000B0008F7DF9CF1F93CF93DF93282F30E0FC
:10039000F901E155FF4F8491F901E556FF4FD491E2
:1003A000F901E957FF4FC491CC23A9F0162F811111
:1003B0000E949A01EC2FF0E0EE0FFF1FEE58FF4F66
:1003C000A591B4918FB7F894EC91111108C0D09514
:1003D000DE23DC938FBFDF91CF911F910895DE2B39
:1003E000F8CFCF93DF9390E0FC01E556FF4F2491C7
:1003F00089579F4FFC0184918823C9F090E0880FB2
:10040000991FFC01E859FF4FA591B491FC01EE58EA
:10041000FF4FC591D49161110DC09FB7F8948C9195
:10042000209582238C938881282328839FBFDF9186
:10043000CF910895623051F49FB7F8943C91822F88
:10044000809583238C93E8812E2BEFCF8FB7F89480
:10045000EC912E2B2C938FBFEACF3FB7F89480916D
:10046000330190913401A0913501B091360126B548
:10047000A89B05C02F3F19F00196A11DB11D3FBFDC
:10048000BA2FA92F982F8827BC01CD01620F711DAB
:10049000811D911D42E0660F771F881F991F4A95A5
:1004A000D1F708958F929F92AF92BF92CF92DF9231
:1004B000EF92FF926B017C010E942D024B015C01C7
:1004C000C114D104E104F104B9F00E942D026819AD
:1004D00079098A099B09683E73408105910580F37B
:1004E00021E0C21AD108E108F10888EE880E83E005
:1004F000981EA11CB11CE4CFFF90EF90DF90CF902D
:10050000BF90AF909F908F900895FC0101900020C4
:10051000E9F73197AF01481B590BBC018EE391E01D
:100520000C948D008F929F92AF92BF920F931F9366
:10053000CF93DF93CDB7DEB7A1970FB6F894DEBFA8
:100540000FBECDBF19A2423008F44AE08E010F5D04
:100550001F4F842E912CB12CA12CA50194010E9437
:10056000ED08E62FB901CA01EA30F4F4E05DD801E4
:10057000EE938D01232B242B252B79F790E080E03F
:10058000109719F0CD010E948502A1960FB6F8943C
:10059000DEBF0FBECDBFDF91CF911F910F91BF90F6
:1005A000AF909F908F900895E95CE1CF4F925F925A
:1005B0006F927F928F929F92AF92BF92CF92DF9273
:1005C000EF92FF9280E480937C0080917A008064B7
:1005D00080937A0080917A0086FDFCCF809178002C
:1005E00060917900762F682F072E000C880B990BED
:1005F0000E94C60720E030E040E85AE30E947B08F2
:1006000020E030E046E154E40E947B086B017C016D
:1006100020E030E0A9010E948907882311F1A70199
:100620009601C701B6010E94E808882301F184E120
:1006300091E00E94850280E291E00E948502C7015C
:10064000B6010E948E07CB01FF90EF90DF90CF9014
:10065000BF90AF909F908F907F906F905F904F90E2
:100660000895C12CD12C80E8E82E8FE3F82E4601A6
:100670005701E894B7F82FEF3FEF4FE75FE7C50169
:10068000B4010E94E80881110DC02FEF3FEF4FE742
:100690005FE7C501B4010E94890718161CF488E1C0
:1006A00091E0C7CF2FEF3FEF4FE75FE4C701B601FF
:1006B0000E94760818161CF48CE191E0BACF2FEF57
:1006C0003FEF4FE75FECC701B6010E94890787FD46
:1006D000F3CF20E030E0A901C701B6010E948907ED
:1006E00087FF54C06DE28EE391E00E942D01C701A7
:1006F000B60190582AE037ED43EA5BE30E941D07FC
:100700002B013C010E9495074B015C010E94C4072C
:100710009B01AC01C301B2010E941C072B013C01EB
:100720004AE0C501B4010E9492026EE28EE391E0BC
:100730000E942D0120E030E040E251E4C301B2010B
:100740000E947B082B013C010E9495074B01B12CB4
:10075000A12C4AE0C501B4010E949202C501B40176
:100760000E94C4079B01AC01C301B2010E941C0797
:1007700020E030E040E251E40E947B080E949507AF
:1007800090E080E04AE00E94920255CFC701B60196
:10079000B1CFCF92DF92EF92FF920F931F93CF933F
:1007A000DF930E94D6028C016C01990FEE08FF08BE
:1007B00080910001843059F08F3F49F1DF91CF9152
:1007C0001F910F91FF90EF90DF90CF900895ECE78D
:1007D000F0E0C491C7FDF2CF61E084E00E94F10136
:1007E000CC2309F482C0C23009F0AEC08091B100C0
:1007F000887F85608093B1002FEF3FEFA901DDEE88
:10080000CD28CE28CF2809F4D4C0DDEE7BC084E00B
:1008100080930001ECE7F0E0C491CF3F79F2C13062
:1008200021F150F0C23009F43EC0C7FDC7CF61E0EE
:1008300084E00E94F101D7CF14BC15BC84B582605E
:1008400084BD85B5816085BDEBE8F0E0E491F0E022
:10085000EE0FFF1FEE58FF4F85919491EFE9F0E006
:10086000E491E0932501C0E0B7CF10928000109290
:100870008100809181008860809381008091810057
:10088000816080938100EBE8F0E0E491F0E0EE0F0E
:10089000FF1FEE58FF4F85919491EFE9F0E0E4914E
:1008A000E093240199CF1092B0001092B100809192
:1008B000B00082608093B0008091B100816080932D
:1008C000B100EBE8F0E0E491F0E0EE0FFF1FEE582E
:1008D000FF4F859194919093380180933701EFE910
:1008E000F0E0E491E093390177CF85B5887F8460AB
:1008F00085BD2FEF3FEFA901D6E7CD28CE28CF2821
:10090000A1F0D6E7F12C2CE032E0D8010E940F09CB
:1009100028EE33E040E050E00E94ED08C13039F1AC
:10092000C23009F446C0C11149CFD7BD20932A0176
:1009300030932B0140932C0150932D0180916E0038
:10094000826080936E003ACFC13029F5809181009A
:10095000887F816080938100D5E4CD28CE28CF2880
:10096000F9F42FEF3FEFA901D5E467E7F62E8D2FBD
:100970009F2D9093890080938800209326013093C7
:100980002701409328015093290180916F008260D4
:1009900080936F0013CFD5E4CD28CE28CF2819F04F
:1009A00097E7F92EB0CF87E7F82E2FEF3FEFA90199
:1009B000B5CFD093B30020933A0130933B014093DD
:1009C0003C0150933D0180917000826080937000E3
:1009D000F5CE1F920F920FB60F9211242F933F93D3
:1009E0004F935F936F937F938F939F93AF93BF9337
:1009F000EF93FF9380913A0190913B01A0913C01CC
:100A0000B0913D01892B8A2B8B2BD1F1909139012B
:100A1000E0913701F09138018081892780838091AE
:100A20003A0190913B01A0913C01B0913D01181613
:100A300019061A061B069CF480913A0190913B011D
:100A4000A0913C01B0913D010197A109B1098093AA
:100A50003A0190933B01A0933C01B0933D01FF917B
:100A6000EF91BF91AF919F918F917F916F915F9126
:100A70004F913F912F910F900FBE0F901F9018959F
:100A800080910001ECE7F0E0E4919FEF909300018A
:100A9000E13051F030F0E23069F060E00E94C301D3
:100AA000DECF10926E00F9CF90916F009D7F9093F2
:100AB0006F00F3CF909170009D7F9093700091E054
:100AC0009093B0009091B100987F94609093B100A2
:100AD0001092B300E2CF1F920F920FB60F92112423
:100AE0002F933F934F935F936F937F938F939F9336
:100AF000AF93BF93EF93FF938EE391E00E940B01BE
:100B0000FF91EF91BF91AF919F918F917F916F91E5
:100B10005F914F913F912F910F900FBE0F901F90BB
:100B200018951F920F920FB60F9211242F938F9347
:100B30009F93EF93FF93E0914E01F0914F018081DD
:100B4000E0915401F091550182FD1BC0908180918C
:100B500057018F5F8F7320915801821741F0E09108
:100B60005701F0E0E25CFE4F958F80935701FF91B3
:100B7000EF919F918F912F910F900FBE0F901F902B
:100B800018958081F4CF1F920F920FB60F92112407
:100B90002F933F938F939F93AF93BF9380912F0198
:100BA00090913001A0913101B091320130912E012C
:100BB00023E0230F2D3758F50196A11DB11D209379
:100BC0002E0180932F0190933001A0933101B093B7
:100BD00032018091330190913401A0913501B0919F
:100BE00036010196A11DB11D80933301909334010C
:100BF000A0933501B0933601BF91AF919F918F9132
:100C00003F912F910F900FBE0F901F90189526E8DF
:100C1000230F0296A11DB11DD2CF789484B58260B6
:100C200084BD84B5816084BD85B5826085BD85B590
:100C3000816085BD80916E00816080936E0010920E
:100C40008100809181008260809381008091810089
:100C5000816080938100809180008160809380001A
:100C60008091B10084608093B1008091B000816078
:100C70008093B00080917A00846080937A008091A4
:100C80007A00826080937A0080917A0081608093FC
:100C90007A0080917A00806880937A001092C10077
:100CA000E0914E01F0914F0182E08083E0914A0192
:100CB000F0914B011082E0914C01F0914D018FECCD
:100CC000808310925601E0915201F091530186E029
:100CD0008083E0915001F091510180818061808397
:100CE000E0915001F0915101808188608083E09112
:100CF0005001F0915101808180688083E091500122
:100D0000F091510180818F7D808362E082E00E94BA
:100D1000F10160E08EE00E94F10161E083E00E9459
:100D2000F10161E084E00E94F1010E94C903C1EB7E
:100D3000D0E00DE910E099E8E92E90E0F92E20E0EE
:100D4000C22E20E0D22EFE018491F801A490F7017A
:100D5000B490BB2029F181110E949A01EB2DF0E0A3
:100D6000EE0FFF1FE358FF4FA591B4918C91A8227D
:100D7000B9F080910101811103C081E080930101EC
:100D80006AE070E080E090E00E945202C114D10459
:100D9000D1F20E94F7008823B1F20E940000D3CF65
:100DA00080910101882391F3109201010E94C903EF
:100DB00061E083E00E94C3010E94D602BC01990F4A
:100DC000880B990B0E94520260E083E00E94C301ED
:100DD00064EF71E080E090E00E945202D1CFEEE338
:100DE000F1E01382128288EE93E0A0E0B0E0848309
:100DF0009583A683B78386E091E09183808385EC19
:100E000090E09587848784EC90E09787868780ECD4
:100E100090E0918B808B81EC90E0938B828B82ECC5
:100E200090E0958B848B86EC90E0978B868B118E6F
:100E3000128E138E148E08955058BB27AA270E9435
:100E400034070C943C080E942E0838F00E943508A4
:100E500020F039F49F3F19F426F40C942B080EF47B
:100E6000E095E7FB0C942508E92F0E944D0858F304
:100E7000BA17620773078407950720F079F4A6F57F
:100E80000C946F080EF4E0950B2EBA2FA02D0B01D9
:100E9000B90190010C01CA01A0011124FF27591BBF
:100EA00099F0593F50F4503E68F11A16F040A22FC5
:100EB000232F342F4427585FF3CF46953795279536
:100EC000A795F0405395C9F77EF41F16BA0B620B35
:100ED000730B840BBAF09150A1F0FF0FBB1F661F7C
:100EE000771F881FC2F70EC0BA0F621F731F841FBF
:100EF00048F4879577956795B795F7959E3F08F0E5
:100F0000B0CF9395880F08F09927EE0F97958795A6
:100F100008950E94010808F481E008950E94950751
:100F20006894B1110C94700808950E94550888F0D7
:100F30009F5798F0B92F9927B751B0F0E1F0660F9D
:100F4000771F881F991F1AF0BA95C9F714C0B130DE
:100F500091F00E946F08B1E008950C946F08672F1C
:100F6000782F8827B85F39F0B93FCCF3869577950D
:100F70006795B395D9F73EF49095809570956195F6
:100F80007F4F8F4F9F4F0895E89409C097FB3EF421
:100F900090958095709561957F4F8F4F9F4F9923C6
:100FA000A9F0F92F96E9BB279395F6958795779544
:100FB0006795B795F111F8CFFAF4BB0F11F460FF04
:100FC0001BC06F5F7F4F8F4F9F4F16C0882311F05C
:100FD00096E911C0772321F09EE8872F762F05C070
:100FE000662371F096E8862F70E060E02AF09A950B
:100FF000660F771F881FDAF7880F9695879597F900
:101000000895990F0008550FAA0BE0E8FEEF161699
:101010001706E807F907C0F012161306E407F507EC
:1010200098F0621B730B840B950B39F40A2661F060
:10103000232B242B252B21F408950A2609F4A14003
:10104000A6958FEF811D811D089597F99F6780E810
:1010500070E060E008959FEF80EC089500240A940A
:101060001616170618060906089500240A94121683
:101070001306140605060895092E0394000C11F4B6
:10108000882352F0BB0F40F4BF2B11F460FF04C063
:101090006F5F7F4F8F4F9F4F089557FD9058440FBC
:1010A000551F59F05F3F71F04795880F97FB991FC7
:1010B00061F09F3F79F08795089512161306140684
:1010C000551FF2CF4695F1DF08C016161706180611
:1010D000991FF1CF86957105610508940895E894EC
:1010E000BB2766277727CB0197F908950E9401084F
:1010F00008F48FEF08950E948E080C943C080E941B
:101100002E0838F00E94350820F0952311F00C9439
:1011100025080C942B0811240C9470080E944D088B
:1011200070F3959FC1F3950F50E0551F629FF0013A
:10113000729FBB27F00DB11D639FAA27F00DB11D53
:10114000AA1F649F6627B00DA11D661F829F2227DC
:10115000B00DA11D621F739FB00DA11D621F839F63
:10116000A00D611D221F749F3327A00D611D231F39
:10117000849F600D211D822F762F6A2F11249F5787
:1011800050409AF0F1F088234AF0EE0FFF1FBB1F8A
:10119000661F771F881F91505040A9F79E3F510549
:1011A00080F00C9425080C9470085F3FE4F3983E9F
:1011B000D4F3869577956795B795F795E7959F5FF3
:1011C000C1F7FE2B880F911D9695879597F9089585
:1011D0000E940108880B990B0895A1E21A2EAA1B00
:1011E000BB1BFD010DC0AA1FBB1FEE1FFF1FA217D7
:1011F000B307E407F50720F0A21BB30BE40BF50BD4
:10120000661F771F881F991F1A9469F7609570955C
:10121000809590959B01AC01BD01CF0108950E947E
:101220001C09B7FF0895821B930B0895EE0FFF1F53
:101230000590F491E02D0994A29FB001B39FC001E5
:10124000A39F700D811D1124911DB29F700D811DF2
:0A1250001124911D0895F894FFCFBA
:10125A00FF01000000002D018D00BA007A01EB00A9
:10126A00C900DD006E616E00696E66006F76660009
:04127A000D0A000059
:00000001FF
